:100000000C9443000C9460000C9460000C9460000D
:100010000C9460000C9460000C9460000C946000E0
:100020000C9460000C9460000C9460000C946000D0
:100030000C9460000C9460000C9460000C946000C0
:100040000C9460000C9460000C9460000C946000B0
:100050000C9460000C9460000C9460000C946000A0
:100060000C9460000C9460006C137613CC13D213C4
:1000700091149114911491149114911454145914CD
:100080005E1469147D1411241FBECFEFD8E0DEBFCB
:10009000CDBF12E0A0E0B1E0E4EBF4E302C00590D4
:1000A0000D92A832B107D9F714E0A8E2B2E001C07E
:1000B0001D92AF39B107E1F70E94F2160C94581A5D
:1000C0000C940000FB01480F591FDC0102C0819114
:1000D0008D93A417B507D9F708958FEF8EBD0DB492
:1000E00007FEFDCF8EB5089582E3809328020E941B
:1000F0006D000E946D008F3F39F0809128028111C0
:10010000F8CF20E030E002C021E030E0C9010895DE
:100110002A9A0E946D0008952A980E947400892BE3
:1001200029F40E94880020E030E002C021E030E0A5
:10013000C90108952A980E9474002A9A0E946D00AD
:10014000809100018160809300010895CF92DF9239
:10015000EF92FF92CF93C82F6A017B0187FF0AC0FD
:1001600040E050E0BA0187E30E94A600823008F028
:1001700042C0CF770E9488000E948C00892BD1F169
:100180008C2F80648EBD0DB407FEFDCF4F2D5527FB
:10019000662777274EBD0DB407FEFDCFA701662762
:1001A00077274EBD0DB407FEFDCF77276F2D5E2D4F
:1001B0004D2D4EBD0DB407FEFDCFCEBC0DB407FED8
:1001C000FDCFCC2321F0C83021F081E003C085E9C8
:1001D00001C087E88EBD0DB407FEFDCFCC3011F411
:1001E0000E946D00CAE00E946D0087FF04C0C150EC
:1001F000D1F701C08FEFCF91FF90EF90DF90CF90BC
:1002000008950F931F93CF93DF93EC018B0184E14B
:10021000809329020E946D008F3F29F4809129026A
:100220008111F8CF26C08E3F21F58FEF8EBD0DB422
:1002300007FEFDCF9EB598838EBD0DB407FEFDCFA2
:100240009EB599838EBD0DB407FEFDCF9EB59A83F2
:100250008EBD0DB407FEFDCF9EB59B832496045042
:10026000110921F70E946D000E946D0021E030E02D
:1002700002C020E030E0C901DF91CF911F910F91C2
:100280000895A1E0B0E0E7E4F1E00C947F178C0161
:1002900069830E9474006981892B59F16EBD0DB488
:1002A00007FEFDCF6D3F41F198013E5FF80180816F
:1002B0008EBD0DB407FEFDCFF80181818EBDC80152
:1002C00002968C010DB407FEFDCF8217930771F7DC
:1002D0008FEF8EBD0DB407FEFDCF8FEF8EBD0DB439
:1002E00007FEFDCF0E946D008F7121E030E0853068
:1002F00029F020E030E002C021E030E0C901219681
:10030000E4E00C949B17FC010097B9F080818823EE
:10031000A1F0868197818617970779F481818111F1
:1003200003C08091000101C081E080FF03C023E091
:1003300030E005C020E030E002C029E030E0C90133
:1003400008950F931F93FC014250510961097109EF
:1003500086899789A08DB18D0297A109B1094817A7
:1003600059076A077B0788F4A281B0E09A01AB01C4
:100370000E9444178B019C0186A197A1A0A5B1A55D
:10038000080F191F2A1F3B1F03C000E010E098014F
:10039000B801C9011F910F910895811113C0E09117
:1003A0002A02F0912B02309709F010826115710535
:1003B00011F0FB01108270932B0260932A0220E05F
:1003C00030E002C02BE030E0C9010895A4E0B0E0C5
:1003D000ECEEF1E00C947B178111A6C08091000136
:1003E00081FD9FC0229A8CE284B980E58CBD82E5B4
:1003F0008CBD1AE00E946D001150E1F740E050E022
:10040000BA0180E00E94A600813009F079C084E63C
:10041000809329024AEA51E060E070E088E00E949F
:10042000A600813009F041C08E010F5F1F4F6E01A1
:1004300085E0C80ED11C78010E946D00F701819300
:100440007F01EC15FD05C1F78B81813009F058C0A3
:100450008C818A3A09F054C080912902811106C02A
:1004600080912902882309F44BC00AC040E050E083
:1004700060E070E489EA0E94A6008111EDCFF0CF20
:1004800040E050E0BA018AE30E94A600811138C022
:100490000E946D00F80181938F01EC15FD05C1F7F5
:1004A000898186FF2BC01CE02CC040E050E0BA01DF
:1004B00089EA0E94A600823018F412E009EA02C01C
:1004C00011E001E080912902811105C0809129028B
:1004D0008823B1F009C040E050E0BA01802F0E94AB
:1004E000A6008111EFCFF2CF40E052E060E070E073
:1004F00080E10E94A600811103C003C014E001C086
:1005000010E010932E020E948800112341F0809188
:1005100000018E7F8093000180E58CBD02C00E94A7
:100520009A008091000101C081E02496E8E00C94DB
:100530009717811103C080910001089581E008950B
:100540000F93CF93DF93EB01BA01A90181113FC053
:100550000023E9F18091000180FD3CC080912E02D2
:1005600083FD07C039E0440F551F661F771F3A957A
:10057000D1F7013071F481E10E94A60081111EC003
:1005800060E072E0CE010E940101892BB9F000E029
:1005900015C082E10E94A600811110C060E072E0E7
:1005A000CE010E940101892B19F0DE5F0150B1F7E5
:1005B00040E050E0BA018CE00E94A6000E94880052
:1005C00021E030E0011108C020E030E005C024E067
:1005D00030E002C023E030E0C901DF91CF910F91FC
:1005E00008950F93CF93DF93EC018E9601E09A016B
:1005F000AB01BC0189810E94A002892B09F059C07E
:10060000FE01E35DFD4F908180E0FE01E45DFD4F62
:100610002081822B85359A4A09F04DC0FE01E959A7
:10062000FF4F2081FE01EA59FF4F808190E0A0E05A
:10063000B0E0DC0199278827B22BFE01EC59FF4F6F
:100640002081822BFE01EB59FF4F508140E060E09A
:1006500070E0842B952BA62BB72BBB2786349144B7
:10066000A445B10551F1FE01ED57FF4F8081FE0118
:10067000EE57FF4F408150E060E070E0BA0155272F
:100680004427782BFE01E058FF4F8081482BCF573D
:10069000DF4F988180E0A0E0B0E0482B592B6A2B17
:1006A0007B2B772781E0463451446445710531F452
:1006B00004C083E003C082E001C080E0DF91CF91FD
:1006C0000F910895CF92DF92EF92FF920F93CF9305
:1006D000DF93EB0169017A01811151C0002309F414
:1006E0004EC08091000180FD4DC08091000182FDCF
:1006F0004CC080912E0283FD07C0A9E0CC0CDD1C0C
:10070000EE1CFF1CAA95D1F7013079F4B701A601C0
:1007100088E10E94A600811129C06EEFCE010E94DF
:100720004101892B19F100E021C0867039F0402F7A
:1007300050E060E070E087E90E94A600B701A601E2
:1007400089E10E94A600811111C06CEFCE010E94C8
:100750004101892B19F0DE5F0150B9F76DEF80E0A0
:1007600090E00E944101892B09F401E00E94880079
:1007700021E030E001110BC020E030E008C024E0AF
:1007800030E005C023E030E002C022E030E0C901E3
:10079000DF91CF910F91FF90EF90DF90CF90089570
:1007A0004F925F926F927F92AF92BF92CF92DF9201
:1007B000EF92FF920F931F93CF93DF93EC012A01E7
:1007C0003B01CAA4DBA4ECA4FDA4C416D506E6062E
:1007D000F70609F450C08C81811107C041145104FF
:1007E0006104710409F447C037C05E018EE2A80EAF
:1007F000B11C01E0A7019601B50189810E94620345
:10080000892B19F021E030E038C01C828A8D9B8D45
:10081000AC8DBD8D4E8D5F8D68A179A1840F951F24
:10082000A61FB71FC816D906EA06FB06B8F61B8135
:1008300010C08A8D9B8DAC8DBD8DC80ED91EEA1E51
:10084000FB1E01E0A7019601B50189810E946203A8
:100850001150123070F7C2CFBE01625D7F4F01E0D0
:10086000A301920189810E94A002892B59F64AA610
:100870005BA66CA67DA620E030E0C901DF91CF9198
:100880001F910F91FF90EF90DF90CF90BF90AF90AE
:100890007F906F905F904F900895A4E0B0E0E3E503
:1008A000F4E00C9473174C016A017B0128013901B3
:1008B000423051056105710508F4F0C0FC018689DC
:1008C0009789A08DB18D481759076A077B0708F0F3
:1008D000E5C08081823009F474C0833009F496C089
:1008E000813009F0D4C05A01B694A794A40EB51E65
:1008F000C501892F99278695468D578D60A171A1D5
:10090000480F591F611D711DC4010E94D0039C0135
:10091000009709F0BEC0A5015170480D591DD701BF
:10092000C60181709927AA27BB2789839A83AB8345
:10093000BC83C0FE0AC0DA019E962C912F70B0E1F4
:100940004B9EC0011124282B01C0242DFA0126A79B
:10095000FFEFAF1ABF0A81E0D40114968C9314976D
:10096000C501892F992786955E964D915D916D9170
:100970007C919197480F591F611D711DC4010E9400
:10098000D0039C01009709F084C0F501F170E80DD7
:10099000F91D89819A81AB81BC81892B8A2B8B2B94
:1009A00049F0B4E07694679457944794BA95D1F798
:1009B000942D05C086A5807F952D9F70982B96A7B6
:1009C00068C0452F562F672F7727F401868D978DA6
:1009D000A0A1B1A1480F591F6A1F7B1FC4010E942B
:1009E000D0039C01009709F054C0CC0CDD1CEE1C18
:1009F000FF1CF1E0DF22EE24FF24F401EC0DFD1DCD
:100A000046A6F401EC0DFD1D57A643C0E7E0769520
:100A1000679557954795EA95D1F7F401868D978D9F
:100A2000A0A1B1A1480F591F6A1F7B1FC4010E94DA
:100A3000D0039C01009769F5B2E0CC0CDD1CEE1CE4
:100A4000FF1CBA95D1F7F1E0DF22EE24FF24A601C6
:100A5000425D5F4F480D591DDA0113968C9190E06D
:100A6000A0E0B0E0B82FAA2799278827C80CD91C86
:100A700088279927AA27B07F84299529A629B729ED
:100A8000F60186A7FA019183A283B38302C022E014
:100A900030E081E0D40114968C9302C022E030E073
:100AA000C9012496E0E10C948F17A0E0B0E0EBE5DB
:100AB000F5E00C947A17EC016A017B014230510594
:100AC0006105710508F4BDC08E899F89A88DB98D17
:100AD000481759076A077B0708F0B3C0888182303E
:100AE00009F447C0833009F46CC0813009F0A5C017
:100AF0008A0116950795040F151FC801892F99279C
:100B000086954E8D5F8D68A179A1480F591F611D93
:100B1000711DCE010E94D003892B09F08EC0F8010F
:100B2000F170EC0FFD1FB6A40F5F1F4FC801892F96
:100B3000992786954E8D5F8D68A179A1480F591F21
:100B4000611D711DCE010E94D003892B09F075C073
:100B5000F801F170EC0FFD1F16A500E00B29C0FE97
:100B600006C0B4E016950795BA95E1F727C01F7047
:100B700025C0452F562F672F77278E8D9F8DA8A1D3
:100B8000B9A1480F591F6A1F7B1FCE010E94D003D5
:100B9000892B09F052C0CC0CDD1CEE1CFF1C81E03F
:100BA000D822EE24FF24FE01EC0DFD1D26A5FE013A
:100BB000EC0DFD1D97A580E08C01022B20E030E0BC
:100BC00044C0E7E07695679557954795EA95D1F744
:100BD0008E8D9F8DA8A1B9A1480F591F6A1F7B1F39
:100BE000CE010E94D003892B41F552E0CC0CDD1CD4
:100BF000EE1CFF1C5A95D1F781E0D822EE24FF2489
:100C0000F601BE96EC0FFD1F8281038110E020E00B
:100C100030E0302F222711270027282B918180E0F8
:100C2000A0E0B0E0082B192B2A2B3B2BFE01EC0D8A
:100C3000FD1D86A5082B3F7008C00FEF1FEF980120
:100C400004C001E010E020E030E0B801C901CDB7F8
:100C5000DEB7E9E00C949617A0E0B0E0E2E3F6E03E
:100C60000C947317EC014A015B01411551056105B4
:100C7000710599F44A845B846C847D844114510429
:100C80006104710409F18E899F89A88DB98D481678
:100C900059066A067B06C0F41BC00E9455056B010D
:100CA0007C01623071058105910508F48BC08E8945
:100CB0009F89A88DB98DC816D906EA06FB0608F4E7
:100CC00085C02401350104C0412C512C32014394CC
:100CD000730162018FEFC81AD80AE80AF80A8E89F0
:100CE0009F89A88DB98DC816D906EA06FB0678F04B
:100CF00022E0421651046104710420F4C12CD12C6D
:100D0000760164C062E0C62ED12CE12CF12CB70133
:100D1000A601CE010E945505611571058105910559
:100D2000B9F06F3F2FEF72078207920729F4CC24A6
:100D3000CA94DC2C76014AC06130710581059105A9
:100D400009F440C0C414D504E604F70419F6D6CF5C
:100D50007C2C6D2C5E2C4F2C0FEF1FEF2FEF3FE004
:100D6000A601B701CE010E944D04009741F5811400
:100D70009104A104B10479F47A866B865C864D8671
:100D80008E859F85A889B9898F3F2FEF9207A2078B
:100D9000B20759F41BC086019701B501A401CE0129
:100DA0000E944D04009741F30AC00197A109B109BF
:100DB0008E879F87A88BB98B81E08D8307C00197B1
:100DC00009F4B5CFC12CD12C7601C394B601C7016B
:100DD000CDB7DEB7E0E10C948F17A6E0B0E0E3EF0B
:100DE000F6E00C9471179E838D836A017B01DC0110
:100DF00012966D917C9113978D919C910E94830125
:100E00008C01009709F076C1ED81FE81248127FDD8
:100E10006FC182859385A485B5858C159D05AE052A
:100E2000BF0520F421FD02C06C017D01AD81BE81B2
:100E300016964D905D906D907C901997FD011682ED
:100E4000178210861186C114D104E104F10421F443
:100E5000C12CD12C76011DC1AD81BE812D903C905D
:100E6000F1018280912CA12CB12CF9E0880C991C05
:100E7000AA1CBB1CFA95D1F74114510461047104FA
:100E8000E1F1F1E04F1A510861087108C701B6019C
:100E90006150710981099109A50194010E944F17C0
:100EA00029833A834B835C83C301B201A50194017A
:100EB0000E944F1789819A81AB81BC818217930769
:100EC000A407B507D0F088279927DC01881999096C
:100ED000AA09BB0984219521A621B721ED81FE81B4
:100EE00086839783A087B187C81AD90AEA0AFB0AC2
:100EF000428953896489758930C0AD81BE811E964F
:100F00004D915D916D917C91519741155105610510
:100F10007105D9F440E050E0BA01C1010E942C06ED
:100F2000AB01BC01413051056105710509F454C0A4
:100F30004F3FFFEF5F076F077F0709F430C0ED8178
:100F4000FE8146875787608B718BAD81BE8152963B
:100F50004D935D936D937C935597411551056105B4
:100F6000710509F475CF57C0ED81FE812481808120
:100F7000918121FF0AC00E942C06AB01BC014115E2
:100F800051056105710529F44DC00E945505AB015D
:100F9000BC014F3FFFEF5F076F077F0759F4AD813B
:100FA000BE8114968C911497806814968C9301E0FE
:100FB00010E0A0C0423051056105710568F0AD81B7
:100FC000BE81ED91FC9186899789A08DB18D4817DE
:100FD00059076A077B0730F0ED81FE8184818068C4
:100FE000848386C0AD81BE8152964D935D936D938F
:100FF0007C935597FD0186819781A085B185880DE9
:10100000991DAA1DBB1D86839783A087B187C81829
:10101000D908EA08FB088C149D04AE04BF0408F448
:10102000A3CF02C075016401ED81FE8186819781A5
:10103000A085B1858C0D9D1DAE1DBF1D8683978338
:10104000A087B187D701C6019170AA27BB27892B3A
:101050008A2B8B2B09F4FCCE808191810E94A10107
:10106000611571058105910549F4AD81BE81149624
:101070008C911497806814968C933AC0E9E0F694AA
:10108000E794D794C794EA95D1F7C60ED71EE81E09
:10109000F91EED81FE8186819781A085B185AC0125
:1010A000BD01517066277727452B462B472B69F0EA
:1010B00046895789608D718DC416D506E606F706F8
:1010C00021F0C68AD78AE08EF18EED81FE814285BD
:1010D000538564857585481759076A077B0750F45F
:1010E00082879387A487B58784818062848302C0C6
:1010F00002E010E0C8012696E2E10C948D170F93F0
:101100001F93CF93DF93EC011D821C824E815F8180
:1011100068857985413051056105710519F422E032
:1011200030E065C008811981F80186899789A08D12
:10113000B18D481759076A077B0788F74115510594
:1011400061057105F1F48081833049F442A153A116
:1011500064A175A1411551056105710591F41A86C7
:101160001B861C861D86F80180859185892BB9F226
:1011700082A193A1A4A1B5A18E879F87A88BB98BCB
:101180002DC0F801828181111EC0888199810E9441
:101190005505AB01BC014F3FFFEF5F076F077F07AE
:1011A00021F1423051056105710508F4B8CFE8819D
:1011B000F98186899789A08DB18D481759076A07EB
:1011C0007B0718F3ACCF4A875B876C877D87C801A4
:1011D0000E94A1016E877F87888B998B025D1F4FCC
:1011E0001B8B0A8B20E030E002C021E030E0C90117
:1011F000DF91CF911F910F910895A4E0B0E0E3E05B
:10120000F9E00C9471179C838B83962E172F6A013B
:101210003A832983D9011D921C92FC01628173815A
:10122000808191810E9483017C01009709F040C177
:10123000AB81BC8114968C91149787FD32C180FFDD
:1012400034C11A968D919D910D90BC91A02DEB818A
:10125000FC814681578160857185841B950BA60BA7
:10126000B70BA60160E070E084179507A607B707E3
:1012700008F46C01A92CB12E0FC1AB81BC8116966C
:101280004D915D916D917C911997DB01CA0191702F
:10129000AA27BB27892B8A2B8B2B09F0A9C0EB81AE
:1012A000FC81808191812A013B01A9E076946794B9
:1012B00057944794AA95D1F7DC0112961C911150CE
:1012C000142131F5452B462B472B29F4668577856C
:1012D0008089918908C0EB81FC81428953896489A6
:1012E00075890E945505623071058105910508F4E4
:1012F0001FC06F3FBFEF7B078B079B0709F448C0F8
:10130000AB81BC8152966D937D938D939C93559741
:10131000EB81FC8160807180428953896489758981
:10132000C3010E94A101611571058105910549F470
:10133000AB81BC8114968C911497806814968C9321
:10134000B0C01B012C01210E311C411C511C460157
:10135000892C992486948114910409F443C0F301E3
:101360002281812F90E0A401480F591F30E02417FB
:10137000350718F44901881A990A082DA20191012C
:10138000B501D30111968C910E94A002892B19F00E
:10139000EB81FC814FC0AB81BC81ED91FC918481DC
:1013A0008823E1F082A593A5A4A5B5A58219930988
:1013B000A409B509A40160E070E084179507A607A9
:1013C000B70760F4BF01625D7F4F982F8827990FA0
:1013D00040E052E08A0D9B1D0E946200982C8824F8
:1013E000990C3FC0EB81FC81268A378A408E518E52
:1013F000EB81FC8186819781A085B1859170AA27B8
:10140000BB2720E032E0281B390B46012C153D0597
:1014100008F44901AB81BC8156964D915D916D9167
:101420007C9159978D919C910E94D003EB81FC8116
:10143000892B39F0848180688483EE24E394F12C35
:1014400037C086819781A085B1859170AA27BB2777
:101450008E9660817181680F791FA401C5010E9479
:101460006200A80CB91CEB81FC8186819781A08564
:10147000B185880D991DA11DB11D86839783A08715
:10148000B187A981BA818D919C911197880D991D81
:101490008D939C93C818D908C114D10409F0EDCEDE
:1014A00007C0B2E0EB2EF12C03C0A7E0EA2EF12C2E
:1014B000C7012496E2E10C948D17A0E0B0E0E3E6CA
:1014C000FAE00C947717EC016B010C811D810F5F22
:1014D0001F4F19F424E030E0E9C08E859F85A8896C
:1014E000B9890097A105B105A9F32FE0E22EF12CEF
:1014F000E022F122E114F10409F0C3C00196A11D1C
:10150000B11D8E879F87A88BB98B4A855B856C85BB
:101510007D8588819981FC01411551056105710521
:1015200031F48085918508171907A0F6AAC0228199
:1015300030E021503109F801A4E0F695E795AA952D
:10154000E1F72E233F23232B09F09BC00E94550572
:101550004B015C01623071058105910518F422E0B0
:1015600030E0A4C08FEF88169806A806B80619F4D4
:1015700021E030E09BC088819981FC014689578930
:10158000608D718D84169506A606B70608F46BC0AB
:10159000C114D10409F49ECF4A855B856C857D8595
:1015A0000E942C064B015C016115710581059105B6
:1015B00009F47AC0613071058105910581F28FEFE0
:1015C00088169806A806B80699F240E050E0BA01DD
:1015D000888199810E94D003892B51F68881998155
:1015E000FC01BE96825D9D4F01C01192E817F9077C
:1015F000E1F7C880D980B501A401C6010E94A1010C
:10160000F60162A773A784A795A7D12CCC24C39415
:1016100019C0C48240E050E0BA01888199810E94DB
:10162000D003892B09F0A4CFE881F98182A593A585
:10163000A4A5B5A50196A11DB11D82A793A7A4A736
:10164000B5A7D394E881F9818281D81610F382A5D9
:1016500093A5A4A5B5A58D199109A109B10982A7E2
:1016600093A7A4A7B5A78A869B86AC86BD86B5013D
:10167000A401888199810E94A1016E877F87888B50
:10168000998B1D830C83B5E0EE0CFF1CBA95E1F736
:10169000FEE2EF0EF11C888199818E0D9F1D9B8BC0
:1016A0008A8B20E030E002C027E030E0C901CDB7EE
:1016B000DEB7ECE00C949317A0E4B0E0E2E6FBE0C8
:1016C0000C9471179CA38BA31B014EA7DC011D92E8
:1016D0001C924F7149A7FB018081992787FD909546
:1016E000C0978A30910548F421812A3331F4F2E021
:1016F0002F0E311C892B09F007C3A0902A02B0904D
:101700002B02BA82A982A114B10409F400C31EA558
:101710001E71D5018C91882381F011968C918111D5
:1017200003C08091000101C081E080FD06C011234B
:1017300009F4F0C282FFEEC2F3C2F50110821182F9
:1017400080E00E94E60180FDE8C2112311F082FDD5
:10175000E7C240E050E0BA01C5010E94F1028130C9
:1017600061F5F501E051FE4F8081882309F4DEC266
:10177000F501E950FE4F2081F501EA50FE4F8081CE
:1017800090E0A0E0B0E03C0155244424722AF50129
:10179000EC50FE4F8081482AF501EB50FE4F9081BE
:1017A00080E0A0E0B0E0482A592A6A2A7B2AB301E7
:1017B000A201C5010E94F10203C0412C512C32014B
:1017C000833009F4B0C28111B1C2D501DA969C917F
:1017D000DA9780E0D9962C91822B8115924009F0FE
:1017E000A5C2F501EB5BFF4F908180E0F501EC5B5A
:1017F000FF4F20816C01C22AE12CF12CC114D104CD
:10180000E104F104F9F4F501EB5AFF4F8081F50191
:10181000EC5AFF4FC080D12CE12CF12C7601DD2455
:10182000CC24F82AF501EE5AFF4F8081C82AF50131
:10183000ED5AFF4F908180E0A0E0B0E0C82AD92A9D
:10184000EA2AFB2AF501C28ED38EE48EF58EA6AD70
:10185000A3838A2F8150823008F068C2B0E0A701CC
:1018600096010E9444176FA778AB89AB9AABF3AD92
:10187000FAA7D5011296FC931297FF2309F456C2DA
:101880002F2F30E0C901019782239323892B09F080
:101890004DC2F501E05CFF4F908180E0DF962C9116
:1018A000DF974C01822A19969C928E921897C40158
:1018B0008F709927892B09F039C2F501EE5BFF4F34
:1018C000308120E0F501EF5BFF4F8081F901E82BCB
:1018D000CF019C0140E050E021962CAF3DAF4EAFD0
:1018E0005FAF2197232B242B252B91F5F501EF5A80
:1018F000FF4F2081F501E05BFF4F808190E0A0E089
:10190000B0E0BC0155274427722BF501E25BFF4F85
:101910002081422B21964CAF5DAF6EAF7FAF2197F8
:10192000F501E15BFF4F708160E08B0120E030E06A
:1019300021966CAD7DAD8EAD9FAD2197602B712B47
:10194000822B932B21966CAF7DAF8EAF9FAF2197EB
:10195000D501DD963C91DD9720E0DC965C91252B4E
:101960002115310509F4E2C1A90160E070E04BAB3B
:101970005CAB6DAB7EAB940184E0369527958A9580
:10198000E1F7420F531F611D711D8FA598A9A9A9E9
:10199000BAA9480F591F6A1F7B1F4DA35EA36FA3EF
:1019A00078A721968CAD9DADAEADBFAD21978417C4
:1019B0009507A607B70708F4B9C1BC01CD012DA151
:1019C0003EA14FA158A5621B730B840B950BAAA5D2
:1019D0002A2F30E040E050E00E944F1721153105DA
:1019E0004105510509F4A2C1263FBFE03B0741056F
:1019F000510540F0263FEFEF3E074105510520F429
:101A000012E003C011E001C013E0CA01B9016E5F2A
:101A10007F4F8F4F9F4F6AA77BA78CA79DA7D501AC
:101A200056966D937D938D939C9359978DA19EA10E
:101A3000AFA1B8A5840D951DA61DB71DF50186A300
:101A400097A3A0A7B1A78BA99CA9ADA9BEA9840DF6
:101A5000951DA61DB71D868F978FA0A3B1A3133028
:101A6000A9F58114910409F061C1E35AFF4F808107
:101A7000F501E45AFF4F408150E060E070E0BA01A8
:101A800055274427782BF501E65AFF4F8081482BD4
:101A9000F501E55AFF4F908180E0A0E0B0E0482BCF
:101AA000592B6A2B7B2BD50192964D935D936D93A9
:101AB0007C9395976AA57BA58CA59DA5B2E0660F42
:101AC000771F881F991FBA95D1F730C081149104F0
:101AD00009F42CC12FA538A949A95AA9820F931F2F
:101AE000A41FB51FF50182A393A3A4A3B5A312302D
:101AF00049F46AA57BA58CA59DA5660F771F881F55
:101B0000991F14C0A3E0B0E02AA53BA54CA55DA594
:101B10000E9444179695879577956795217033278E
:101B200044275527620F731F841F951FDC01CB01CB
:101B300081509E4FAF4FBF4F69E0B695A7959795DF
:101B400087956A95D1F7C816D906EA06FB0608F408
:101B5000EDC08FEF9FEFDC01F50186879787A08BA3
:101B6000B18BD5011286138614861586133009F0C1
:101B7000B5C01582E15AFF4F908180E0F501E25A2D
:101B8000FF4F2081822BA3019201280F391F411D95
:101B9000511D52962D933D934D935C935597B501EE
:101BA000625D7F4F01E011968C910E94A002892B0B
:101BB00009F094C0F501E35DFD4F908180E0F501EF
:101BC000E45DFD4F2081822B85359A4A09F086C05D
:101BD000F50121A980A990E0A0E0B0E0DC019927FF
:101BE0008827B22B26A5822B57A540E060E070E045
:101BF000842B952BA62BB72B82359245A146B14459
:101C000009F06CC0F501EB5EFD4F2081F501EC5E43
:101C1000FD4F808190E0A0E0B0E0DC0199278827AB
:101C2000B22BF501EE5EFD4F2081822BF501ED5EBA
:101C3000FD4F508140E060E070E0842B952BA62B97
:101C4000B72B82379247A144B14609F047C0F5014E
:101C5000E35EFD4F2081F501E45EFD4F808190E061
:101C6000A0E0B0E0DC0199278827B22BF501E65E01
:101C7000FD4F2081822BF501E55EFD4F508140E054
:101C800060E070E0842B952BA62BB72BF5018287A3
:101C90009387A487B587E75EFD4F2081F501E85E55
:101CA000FD4F808190E0A0E0B0E0DC01992788271B
:101CB000B22BF501EA5EFD4F2081822BF501E95E32
:101CC000FD4F508140E060E070E0842B952BA62B07
:101CD000B72BF50186879787A08BB18BD5011C9315
:101CE00080912C0290912D02019690932D02809369
:101CF0002C0217969C938E931697F50112A613A6A5
:101D000014A615A6148206C02BE030E011C02CE00A
:101D100030E00EC020E030E00BC023E030E008C02F
:101D20002AE030E005C021E030E002C02DE030E0E4
:101D3000CE0147969E8B8D8B2115310509F0F4C09D
:101D4000D1018C918F3211F08C3519F4BFEF2B1A21
:101D50003B0A1F82188619861A86F101808180321B
:101D600040F4CE0101960E947F089C011C8A1B8AC8
:101D7000DBC070E2D72EE5E0CE2EED89FE89CF01E3
:101D80000B96DF0101C0DD92A817B907E1F75101F9
:101D900080E090E028E030E010E0D5014D915D0159
:101DA000042FBD01621973094132D8F14F32C9F1D4
:101DB0004C35B9F14E3209F458C28217930708F036
:101DC000B1C007C0110F110F88E090E02BE030E0A8
:101DD000E4CF47FF06C0136050E04F575F4FDA0172
:101DE0000C91602F70E041E851E0DA01ED90AD0117
:101DF000EE2009F41EC2FF24E7FCF094E616F70675
:101E0000A1F790C0126006C0402F41564A3110F42D
:101E100011600052BF01680F791FDB010C9301961E
:101E2000BCCF260E371E413210F444E001C040E022
:101E3000892B09F477C08081853E09F4C08228305F
:101E4000310511F4110F110F812F8370813009F4C6
:101E50004061812F8C70843009F448604387CE0143
:101E600001960E947F089C01009739F54F8558899B
:101E700069897A8989819A810E94D0039C0100979F
:101E8000E1F4EB89FC8980818823A9F0838583FDB7
:101E90000BC0AD89BE89CF010B96E817F90769F031
:101EA00051914D915417C9F360E070E0CE01019655
:101EB0000E945D0AD8CF24E030E0ED89FE89838559
:101EC0002115310531F02430310571F582FF27C02D
:101ED0002BC082FD29C0EB89FC89838584FF1FC04C
:101EE000B589B8AF1FAA84892FA938AD282BC9019D
:101EF000A0E0B0E0DC0199278827338D3AAF19AE16
:101F0000228D49AD5AAD422B60E070E0842B952BB9
:101F1000A62BB72B8F839887A987BA872ECF25E06A
:101F200030E002C026E030E0AB88BC8821153105E6
:101F300029F4A114B10411F426E030E08EA58C71CF
:101F400009F4FFC02115310509F448C024303105DA
:101F5000E1F58E010F5F1F4FC8010E947F089C01B1
:101F6000009799F54F85588969897A8989819A817D
:101F70000E94D0039C01009741F5EB89FC892081E8
:101F8000253E09F45CC1222309F459C161E070E0E7
:101F9000C8010E945D0AE3CF8B899C89AC01405E39
:101FA0005F4FFC0101C01192E417F507E1F76D895D
:101FB0007E894BE050E02BAF3CAF0E946200E9818C
:101FC000FA8181E084833CAD2BAD49A5486049A7E7
:101FD000AB88BC882115310551F069C15EA552FD61
:101FE0003BC1D5011B968C91817109F03BC1B9A50C
:101FF000B3FFB5C0F50116861786108A118A1386BD
:10200000148E158E168E178E358920E08489A901CD
:10201000482BCA01A0E0B0E07C01DD24CC24338D44
:1020200020E0828DB901682BCB01A0E0B0E0C82A86
:10203000D92AEA2AFB2A128E138E148A158A8980DD
:102040009A8081E0D40114968C931497C114D10422
:10205000E104F10409F483C09A962D913D914D91CC
:102060005C919D972AA73BA74CA75DA7B1E0CB1633
:10207000D104E104F10409F4FDC0F40186899789D3
:10208000A08DB18DC816D906EA06FB0608F0F2C08D
:10209000CDA2DEA2EFA2F8A63324339442C04DA114
:1020A0005EA16FA178A5C4010E9455052B013C01DA
:1020B000611571058105910509F4E2C06130710572
:1020C0008105910509F4D6C06F3F2FEF7207820793
:1020D000920709F4D2C000E010E098014DA15EA182
:1020E0006FA178A5C4010E944D049C01009709F0DE
:1020F000DEC0F40186859785A089B1898F3FFFEF07
:102100009F07AF07BF0749F00196A11DB11DF4015C
:1021100086879787A08BB18B35824DA25EA26FA276
:1021200078A6F40186899789A08DB18D2DA13EA155
:102130004FA158A5281739074A075B0708F4AFCF06
:102140009FC02115310509F0B2C0D5011B968C91B5
:1021500084FD85C0BEA5B1FF02C080FD83C0E9A596
:10216000E3FF02C0E062E9A709811A81D8019A96CB
:102170004D915D916D917C919D97EBA1FCA1428F5A
:10218000538F648F758FB78EA68E29A52483D501B2
:1021900055969C91559780E054962C91822BA0E007
:1021A000B0E0DC0199278827F501338D20E0428DCE
:1021B000B901642BAB0160E070E0842B952BA62B5A
:1021C000B72BEBA1FCA186879787A08BB18BD5019C
:1021D0005F962C915F975E968C9190E0A0E0B0E0C6
:1021E000DC0199278827B22BF501248D822B558D90
:1021F00040E060E070E0842B952BA62BB72BEBA181
:10220000FCA182879387A487B587168217821086E0
:102210001186168A178A108E118E11830083D801B9
:1022200016968D919C9117979383828320E030E0DE
:102230003EC0402F41544A3108F4E4CDE5CD4F85EE
:10224000588969897A8989819A810E94D0039C0181
:10225000009709F0BACEA0CE28E030E028C024E0F4
:1022600030E025C027E030E022C02830310509F4F5
:10227000A9CD58CE22E030E01AC021E030E017C0EE
:1022800089819A81B701A6014150510961097109FB
:10229000FC0142875387648775874AA55BA56CA5B7
:1022A0007DA50E94D0039C01009709F458CFC90175
:1022B000C05CDF4FE2E10C948D17A4E0B0E0E3E6F0
:1022C000F1E10C9471179C838B834B016A013A8373
:1022D0002983D9011D921C92FC0162817381808146
:1022E00091810E9483017C01009709F0C7C1AB81F5
:1022F000BC8114968C91149787FDB9C181FFBBC135
:102300001A968D919D910D90BC91A02DAC01BD01AF
:102310004C0D5D1D611D711D481759076A077B072C
:1023200008F090C1C12CD12C8DC1EB81FC8146817C
:10233000578160857185DB01CA019170AA27BB278F
:10234000892B8A2B8B2B09F023C10190F081E02D82
:102350002A013B0109E076946794579447940A95C3
:10236000D1F702810150042109F05AC0AB81BC8130
:10237000452B462B472BC1F41E966D917D918D9177
:102380009C915197611571058105910561F540E0BA
:1023900050E0BA01CF010E942C06EB81FC816687D8
:1023A0007787808B918B09C052964D915D916D918D
:1023B0007C915597CF010E942C066115710581050E
:1023C000910589F4EB81FC8186819781A085B18597
:1023D0004285538564857585481759076A077B07C9
:1023E00008F436C13BC1613071058105910549F49E
:1023F000AB81BC8114968C911497806814968C9351
:1024000036C16F3FBFEF7B078B079B0709F423C0E3
:10241000AB81BC8152966D937D938D939C93559720
:10242000EB81FC8180819181DC019A964D905D90D9
:102430006D907C909D9746895789608D718D44166B
:1024400055066606770651F440E050E0BA010E9456
:10245000D003892B19F0EB81FC81BCC0AB81BC811E
:102460006D907C90119752964D915D916D917C91FC
:102470005597C3010E94A101611571058105910560
:1024800031F4EB81FC81848180688483F0C01B017E
:102490002C01200E311C411C511C5601AB2CBB24BD
:1024A000A694A114B10409F447C0D30112962C914B
:1024B000802F90E0A501480F591F30E02417350701
:1024C00018F45901A81AB90A0A2DA2019101B40100
:1024D000F30181810E946203892B19F0AB81BC81D9
:1024E00044C0EB81FC8180819181DC019A964D9101
:1024F0005D916D917C919D9742195309640975090D
:102500002501612C712C441555056605770580F46D
:10251000BA01762F6627770F680D791D40E052E0EB
:102520008E960E946200AB81BC81ED91FC91148279
:10253000BA2CAA24BB0C6AC0EB81FC81468157816E
:102540006085718582859385A485B585481759076F
:102550006A077B07B8F040E050E0BA01C3010E946F
:10256000D003AB81BC81892B39F014968C911497E0
:10257000806814968C9331C0ED91FC9122A633A60D
:1025800044A655A6EB81FC81268A378A408E518E5F
:10259000EB81FC8186819781A085B1859170AA2706
:1025A000BB2720E032E0281B390B56012C153D05D6
:1025B00008F45901AB81BC8156964D915D916D91A6
:1025C0007C9159978D919C910E94D003EB81FC8165
:1025D000892B39F0848180688483EE24E394F12C84
:1025E0004DC086819781A085B1859170AA27BB27B0
:1025F0008E9620813181A501B401820F931F0E9424
:102600006200AB81BC81ED91FC9114838A0C9B1C10
:10261000EB81FC8186819781A085B1858A0D9B1D08
:10262000A11DB11D86839783A087B187A981BA8137
:102630008D919C9111978A0D9B1D8D939C93CA1827
:10264000DB0801C011E0C114D10409F06ECEBACE8E
:10265000EB81FC8182879387A487B587AB81BC819E
:1026600014968C911497806214968C9307C072E034
:10267000E72EF12C03C067E0E62EF12CC70124966B
:10268000E2E10C948D17A0E1B0E0E9E4F3E10C94F1
:102690007D177A0181114AC1653081F4FA01808188
:1026A000882321F0813009F041C103C00E949A00C3
:1026B00002C0FA01818300E010E03DC18091000179
:1026C00080FD37C1E62FF0E0EF30F10508F029C1B9
:1026D000EC5CFF4F0C94A8170E948C00892B19F416
:1026E00001E010E020C10E948800DBC040E050E023
:1026F000BA0189E00E94A6008111F2CF60E170E08A
:10270000CE0101960E940101892B51F389818295A6
:102710008695869583704985813089F48A8590E015
:102720000196342F20E0820F931FA0E0B0E02AE052
:10273000880F991FAA1FBB1F2A95D1F7ADC04295DC
:102740004695469543708885F4E08F9FC00111241B
:10275000840F911D01964F814370342F330F330F37
:1027600020E0820F931FA0E0B0E02E812F703B8508
:10277000331F3327331F230F2E5F3A853370330FF8
:10278000230F30E02950310904C0880F991FAA1F78
:10279000BB1F2A95D2F780C080E092E0FA019183B6
:1027A00080837FC010912E0240E050E0BA0112FFFA
:1027B00029C08DE80E94A600811192CF0E946D0071
:1027C00060E170E0CE0101960E940101892B09F4BD
:1027D00087CF10E30E946D001150E1F78B85829541
:1027E0008F7000E110E020E030E004C0000F111F06
:1027F000221F331F8A95D2F7F701008311832283AA
:1028000033834FC089E00E94A600811169CF60E147
:1028100070E0CE0101960E940101892B09F460CF7E
:102820008C8511FF19C0881F8827881F90E00196AA
:102830002B852F73820F911D820F911D2E8522955E
:1028400026952695237030E02150310902C0880F6B
:10285000991F2A95E2F71EC0982F9370829586954E
:102860008770482F50E0F8E09F9F400D511D1124C4
:102870004F5F5F4F2B852C7730E035952795359549
:1028800027952F5F3F4F429FC001439F900D529F5E
:10289000900D1124A0E0B0E0F70180839183A28322
:1028A000B38300E010E03FC080912E02FA018083E4
:1028B000F8CF40E050E0BA0189E004C040E050E0C9
:1028C000BA018AE00E94A60081110ACF60E170E09F
:1028D00020C040E050E0BA018AE30E94A6008111C6
:1028E000FFCE87010C5F1F4F0E946D00F70181939F
:1028F0007F01E017F107C1F7D4CF40E050E0BA0103
:102900008DE80E94A6008111EBCE0E946D0060E46C
:1029100070E0C7010E94010101E010E0892B19F06D
:10292000C0CF04E010E00E94880005C004E010E081
:1029300002C003E010E0C8016096E6E00C9499172D
:102940000F93CF93DF93EC016A817B81888199811A
:102950000E9483019C01009709F0B3C08C8185FF20
:10296000B0C04A8D5B8D6C8D7D8D888199810E9470
:10297000D0039C01009709F0A4C0EE8DFF8D8385E4
:10298000806283878A85848F8B85858F8C85868FEF
:102990008D85878F8E85828F8F85838F8889848BA5
:1029A0008989858B168A178A108E118E8C818F7D6E
:1029B0008C83E881F98181E084830990D881C02DDE
:1029C00040E050E0BA01CE010E94D0039C01009784
:1029D00009F077C08881833009F067C08D81882332
:1029E00009F463C01AA61BA61CA61DA6BE01625D43
:1029F0007F4FCE01825D9D4FFB0101C01192E81710
:102A0000F907E1F7FE01E45DFD4F85E58083FE01F6
:102A1000E35DFD4F8AEA808382E58EA78FA781E67A
:102A200088AB91E499ABFE01EE5EFD4F22E7208377
:102A3000FE01ED5EFD4F2083FE01EC5EFD4F9083B5
:102A4000FE01EB5EFD4F80833E852F859889898945
:102A5000FE01EA5EFD4F3083FE01E95EFD4F2083FB
:102A6000FE01E85EFD4F9083FE01E75EFD4F80832F
:102A70003A852B859C858D85FE01E65EFD4F308372
:102A8000FE01E55EFD4F2083FE01E45EFD4F908375
:102A9000FE01E35EFD4F80832A893B894C895D8975
:102AA00001E089810E9462031D8240E050E060E005
:102AB00089810E94431321E030E0892B11F420E04A
:102AC00030E0C901DF91CF910F910895CF93DF934B
:102AD000EC010E94A0149C01009711F41982188245
:102AE000C901DF91CF91089580912902882319F0BF
:102AF00081508093290280912802882319F0815007
:102B000080932802089560E070E0CB010895CF9390
:102B1000C82F0E94E601837049F461E772E08C2FB0
:102B20000E94CD0121E030E0892B11F020E030E05F
:102B3000C901CF91089543E1BC0181E392E00E9475
:102B40005C0B21E030E0892B11F020E030E0C9017E
:102B5000089581E392E00E9466150895CF93DF9374
:102B600041E0BC0181E392E00E945C0BEC01009724
:102B700011F40E94A915CE01DF91CF910895A6E727
:102B8000B0E0E5ECF5E10C94811786E7E0E9F1E0CF
:102B9000BE016F5F7F4FDB0101900D928A95E1F7D7
:102BA000FB0101900020E9F7AF0141505109461B9C
:102BB000570B2FE232E081E392E00E945D1181E049
:102BC00090E0CA58DF4FE2E00C949D17A6E1B0E018
:102BD000ECEEF5E10C94811786E1E6E0F2E0BE014F
:102BE0006F5F7F4FDB0101900D928A95E1F7FB014A
:102BF00001900020E9F7AF0141505109461B570BE6
:102C00002FE232E081E392E00E945D1181E090E0EA
:102C10006696E2E00C949D17EF92FF920F931F933C
:102C2000CF93DF937C011F921F922CE132E03F9300
:102C30002F93FF928F930E94BA170F900F900F90CF
:102C40000F900F900F90C0E0D0E00CE112E00FC0A9
:102C50002196DF93CF931F930F93FF92EF920E94E1
:102C6000BA170F900F900F900F900F900F90C70111
:102C70000E94AE15892B61F3C7010E949B15C70105
:102C80000E94BF15C7010E94E61581E392E00E94F1
:102C90006615CE01CDB7DEB7E6E00C949917292F63
:102CA000332727FD3A952093C5008093C40086E022
:102CB0008093C20088E18093C10008958091C00094
:102CC00087FFFCCF8091C60008959091C00095FFCA
:102CD000FCCF8093C6000895CF93DF93EC0102C030
:102CE0000E94651689918111FBCFDF91CF910895E4
:102CF0008AB18C678AB98AB11AB88BB11BB88BB10B
:102D00001BB85B9A8BB11BB82FEF80E792E0215084
:102D100080409040E1F700C000005A9A0895FC01FD
:102D2000419102C0219142279F01281B390B261790
:102D30003707C4F3842F08950895089508950895DA
:102D40000895089508950895089508952FEF80E750
:102D500092E0215080409040E1F700C000002FEF4A
:102D600089E698E1215080409040E1F700C00000E2
:102D70002FEF80E792E0215080409040E1F700C0C3
:102D800000002FEF80E792E0215080409040E1F773
:102D900000C000002FEF80E792E02150804090407B
:102DA000E1F700C000008FE39CE90197F1F700C054
:102DB00000008FE39CE90197F1F700C000008FE36A
:102DC0009CE90197F1F700C000008FE39CE90197AF
:102DD000F1F700C000008FE39CE90197F1F700C014
:102DE00000000895AEE1B0E0E8EFF6E10C947F1743
:102DF00084B1836C84B985B115B887B18FEF87B979
:102E000088B118B82FEF89E698E1215080409040B2
:102E1000E1F700C000008E010F5F1F4FC8010E9444
:102E20000C160FC080E00E948715C8010E940C1686
:102E30002FEF89E698E1215080409040E1F700C0F3
:102E40000000C8010E94AE15892B61F7C8010E94DD
:102E5000AE15892B99F4C8010E949B1540913B0245
:102E600050913C0260913D0270913E0281E392E0FC
:102E70000E94ED060E9478160E94A91581E090E05C
:102E80006E96E4E00C949B170E94AE17A59F900DE0
:102E9000B49F900DA49F800D911D11240895A1E26F
:102EA0001A2EAA1BBB1BFD010DC0AA1FBB1FEE1FC4
:102EB000FF1FA217B307E407F50720F0A21BB30B0F
:102EC000E40BF50B661F771F881F991F1A9469F78B
:102ED00060957095809590959B01AC01BD01CF01E7
:102EE00008952F923F924F925F926F927F928F92AE
:102EF0009F92AF92BF92CF92DF92EF92FF920F9389
:102F00001F93CF93DF93CDB7DEB7CA1BDB0B0FB692
:102F1000F894DEBF0FBECDBF09942A88398848884F
:102F20005F846E847D848C849B84AA84B984C884E5
:102F3000DF80EE80FD800C811B81AA81B981CE0FDC
:102F4000D11D0FB6F894DEBF0FBECDBFED010895C1
:102F5000EE0FFF1F0590F491E02D0994A29FB001A0
:102F6000B39FC001A39F01D0B29F700D811D11249A
:102F7000911D0895AEE0B0E0E0ECF7E10C947F170E
:102F80000D891E8986E08C831A8309838FEF9FE762
:102F90009E838D83CE014996AC016F89788DCE01D9
:102FA00001960E94DC17EF81F885E00FF11F108277
:102FB0002E96E4E00C949B17ACE0B0E0E2EEF7E173
:102FC0000C9471177C016B018A01FC011782168237
:102FD000838181FFC6C188248394912C8C0E9D1E11
:102FE000F7019381F60193FD859193FF81916F0124
:102FF000882309F4B2C1853239F493FD859193FF9A
:1030000081916F01853229F4B70190E00E94CE19B9
:10301000E7CF512C312C20E02032A8F48B3261F024
:1030200028F4803251F0833271F40BC08D3239F0C4
:10303000803349F4216028C02260246025C02860C4
:1030400023C0206121C027FD27C0382F30533A30DC
:1030500078F426FF06C0FAE05F9E300D1124532E4F
:1030600013C08AE0389E300D1124332E20620CC02C
:103070008E3221F426FD71C1206406C08C3611F415
:10308000206802C0883641F4F60193FD859193FFD4
:1030900081916F018111C0CF982F9554933018F012
:1030A0009052933028F40C5F1F4FFFE3F9830DC05B
:1030B000833631F0833771F0833509F05EC023C069
:1030C000F801808189830E5F1F4F44244394512C63
:1030D000540115C03801F2E06F0E711CF801A08098
:1030E000B18026FF03C0652D70E002C06FEF7FEF57
:1030F000C5012C870E94C3192C0183012C856FE721
:10310000262E222218C03801F2E06F0E711CF80141
:10311000A080B18026FF03C0652D70E002C06FEF74
:103120007FEFC5012C870E94B8192C012C8550E82F
:10313000252E222A830123FC1CC006C0B70180E291
:1031400090E00E94CE193A94832D90E048165906DB
:10315000A8F30FC0F50127FC859127FE81915F013F
:10316000B70190E00E94CE1931103A94F1E04F1A65
:1031700051084114510471F7EDC0843611F08936BD
:1031800041F5F80127FF07C0608171818281938139
:103190000C5F1F4F08C060817181882777FD809583
:1031A000982F0E5F1F4F4FE6B42EB22297FF09C033
:1031B00090958095709561957F4F8F4F9F4FF0E868
:1031C000BF2A2AE030E0A4010E94FA19A82EA8180C
:1031D00043C0853731F43FEEB32EB2222AE030E00F
:1031E00024C099EFB92EB2228F36B9F020F4883579
:1031F00009F0B3C00DC0803721F0883709F0ADC0A9
:1032000002C020E1B22AB4FE0BC084E0B82A08C094
:1032100024FF09C0E6E0BE2A06C028E030E005C071
:1032200020E130E002C020E132E0F801B7FE07C043
:1032300060817181828193810C5F1F4F06C0608124
:10324000718180E090E00E5F1F4FA4010E94FA1987
:10325000A82EA818FFE7BF22B6FE0BC02B2D2E7F8D
:10326000A51450F4B4FE0AC0B2FC08C02B2D2E7E6B
:1032700005C07A2C2B2D03C07A2C01C0752C24FF9D
:103280000DC0FE01EA0DF11D8081803311F4297E0D
:1032900009C022FF06C07394739404C0822F8678FD
:1032A00009F0739423FD14C020FF0FC05A2C73142F
:1032B00060F4530C5718732C08C0B70180E290E0FB
:1032C0002C870E94CE1973942C857314B0F304C01C
:1032D000731410F4371801C0312C24FF12C0B70149
:1032E00080E390E02C870E94CE192C8522FF1EC01F
:1032F00021FF03C088E590E002C088E790E0B701B5
:103300000CC0822F867891F021FD02C080E201C0BE
:103310008BE227FD8DE2B70190E00E94CE1906C036
:10332000B70180E390E00E94CE195A94A514C0F32F
:10333000AA94F401EA0DF11DB701808190E00E948A
:10334000CE19A110F5CF06C0B70180E290E00E942F
:10335000CE193A943110F8CF43CEF7012681378148
:1033600002C02FEF3FEFC9012C96E2E10C948D17BC
:10337000FC010590615070400110D8F78095909540
:103380008E0F9F1F0895FC01615070400190011045
:10339000D8F7809590958E0F9F1F08950F931F93D8
:1033A000CF93DF938C01EB018B8181FD03C00FEF85
:1033B0001FEF1AC082FF0DC02E813F818C819D813D
:1033C0002817390764F4E881F9810193F983E883C8
:1033D00006C0E885F985802F0995892B41F78E81F4
:1033E0009F8101969F838E83C801DF91CF911F91AA
:1033F0000F910895FA01AA27283051F1203181F167
:10340000E8946F936E7F6E5F7F4F8F4F9F4FAF4FEC
:10341000B1E03ED0B4E03CD0670F781F891F9A1FFF
:10342000A11D680F791F8A1F911DA11D6A0F711DB3
:10343000811D911DA11D20D009F468943F912AE0BF
:10344000269F11243019305D3193DEF6CF010895A7
:10345000462F4770405D4193B3E00FD0C9F7F6CFD8
:10346000462F4F70405D4A3318F0495D31FD4052A0
:10347000419302D0A9F7EACFB4E0A6959795879536
:1034800077956795BA95C9F7009761057105089515
:103490009B01AC010A2E06945795479537952795C1
:1034A000BA95C9F7620F731F841F951FA01D089559
:0434B000F894FFCFBE
:1034B40001809A90418E418F804545454949498E06
:1034C4008F9092924F994F555559999A9B9C9D9ED6
:1034D4009F41494F55A5A5A6A7A8A9AAABAC21AE63
:1034E400AFB0B1B2B3B4B5B6B7B8B9BABBBCBDBE70
:1034F400BFC0C1C2C3C4C5C6C7C8C9CACBCCCDCE60
:10350400CFD0D1D2D3D4D5D6D7D8D9DADBDCDDDE4F
:10351400DFE0E1E2E3E4E5E6E7E8E9EAEBECEDEE3F
:10352400EFF0F1F2F3F4F5F6F7F8F9FAFBFCFDFE2F
:10353400FF222A2B2C3A3B3C3D3E3F5B5D7C7F00C7
:103544003C3F786D6C2076657273696F6E3D2231F5
:103554002E30223F3E0A3C6770782076657273698C
:103564006F6E203D2022302E3622206372656174F6
:103574006F72203D202247505320574F4C46223E25
:103584000A3C74726B3E0A3C6E616D653E50617418
:10359400683C2F6E616D653E0A3C6E756D626572A6
:1035A4003E313C2F6E756D6265723E0A3C74726BDF
:1035B4007365673E0A003C2F74726B7365673E3C0B
:1035C4002F74726B3E3C2F6770783E002F706174CD
:0835D4006825642E6770780081
:00000001FF
